{
  "_format": "hh-sol-artifact-1",
  "contractName": "Greeter",
  "sourceName": "contracts/Greeter.sol",
  "abi": [
    {
      "inputs": [],
      "name": "clearall",
      "outputs": [],
      "stateMutability": "payable",
      "type": "function"
    },
    {
      "inputs": [],
      "name": "fetchnovoters",
      "outputs": [
        {
          "components": [
            {
              "internalType": "address",
              "name": "_add",
              "type": "address"
            }
          ],
          "internalType": "struct Greeter.voters[]",
          "name": "",
          "type": "tuple[]"
        }
      ],
      "stateMutability": "view",
      "type": "function"
    },
    {
      "inputs": [],
      "name": "fetchyesvoters",
      "outputs": [
        {
          "components": [
            {
              "internalType": "address",
              "name": "_add",
              "type": "address"
            }
          ],
          "internalType": "struct Greeter.voters[]",
          "name": "",
          "type": "tuple[]"
        }
      ],
      "stateMutability": "view",
      "type": "function"
    },
    {
      "inputs": [],
      "name": "voteno",
      "outputs": [],
      "stateMutability": "nonpayable",
      "type": "function"
    },
    {
      "inputs": [],
      "name": "voteyes",
      "outputs": [],
      "stateMutability": "nonpayable",
      "type": "function"
    }
  ],
  "bytecode": "0x608060405234801561001057600080fd5b506108f6806100206000396000f3fe60806040526004361061004a5760003560e01c806330650b381461004f57806358806e7f146100665780636006e234146100915780637d4483b21461009b57806391ca1b6e146100b2575b600080fd5b34801561005b57600080fd5b506100646100dd565b005b34801561007257600080fd5b5061007b61025b565b6040516100889190610731565b60405180910390f35b61009961030c565b005b3480156100a757600080fd5b506100b061043e565b005b3480156100be57600080fd5b506100c76105bc565b6040516100d49190610731565b60405180910390f35b33600260008273ffffffffffffffffffffffffffffffffffffffff1673ffffffffffffffffffffffffffffffffffffffff16815260200190815260200160002060009054906101000a900460ff161561016b576040517f08c379a000000000000000000000000000000000000000000000000000000000815260040161016290610753565b60405180910390fd5b6001600260003373ffffffffffffffffffffffffffffffffffffffff1673ffffffffffffffffffffffffffffffffffffffff16815260200190815260200160002060006101000a81548160ff021916908315150217905550600060405180602001604052803373ffffffffffffffffffffffffffffffffffffffff168152509080600181540180825580915050600190039060005260206000200160009091909190915060008201518160000160006101000a81548173ffffffffffffffffffffffffffffffffffffffff021916908373ffffffffffffffffffffffffffffffffffffffff160217905550505050565b60606000805480602002602001604051908101604052809291908181526020016000905b82821015610303578382906000526020600020016040518060200160405290816000820160009054906101000a900473ffffffffffffffffffffffffffffffffffffffff1673ffffffffffffffffffffffffffffffffffffffff1673ffffffffffffffffffffffffffffffffffffffff16815250508152602001906001019061027f565b50505050905090565b60005b6000805490508110156103a3576000805480610354577f4e487b7100000000000000000000000000000000000000000000000000000000600052603160045260246000fd5b60019003818190600052602060002001600080820160006101000a81549073ffffffffffffffffffffffffffffffffffffffff021916905550509055808061039b906107f9565b91505061030f565b5060005b60018054905081101561043b5760018054806103ec577f4e487b7100000000000000000000000000000000000000000000000000000000600052603160045260246000fd5b60019003818190600052602060002001600080820160006101000a81549073ffffffffffffffffffffffffffffffffffffffff0219169055505090558080610433906107f9565b9150506103a7565b50565b33600260008273ffffffffffffffffffffffffffffffffffffffff1673ffffffffffffffffffffffffffffffffffffffff16815260200190815260200160002060009054906101000a900460ff16156104cc576040517f08c379a00000000000000000000000000000000000000000000000000000000081526004016104c390610753565b60405180910390fd5b6001600260003373ffffffffffffffffffffffffffffffffffffffff1673ffffffffffffffffffffffffffffffffffffffff16815260200190815260200160002060006101000a81548160ff021916908315150217905550600160405180602001604052803373ffffffffffffffffffffffffffffffffffffffff168152509080600181540180825580915050600190039060005260206000200160009091909190915060008201518160000160006101000a81548173ffffffffffffffffffffffffffffffffffffffff021916908373ffffffffffffffffffffffffffffffffffffffff160217905550505050565b60606001805480602002602001604051908101604052809291908181526020016000905b82821015610664578382906000526020600020016040518060200160405290816000820160009054906101000a900473ffffffffffffffffffffffffffffffffffffffff1673ffffffffffffffffffffffffffffffffffffffff1673ffffffffffffffffffffffffffffffffffffffff1681525050815260200190600101906105e0565b50505050905090565b60006106798383610715565b60208301905092915050565b61068e816107bd565b82525050565b600061069f82610783565b6106a9818561079b565b93506106b483610773565b8060005b838110156106e55781516106cc888261066d565b97506106d78361078e565b9250506001810190506106b8565b5085935050505092915050565b60006106ff6022836107ac565b915061070a82610871565b604082019050919050565b60208201600082015161072b6000850182610685565b50505050565b6000602082019050818103600083015261074b8184610694565b905092915050565b6000602082019050818103600083015261076c816106f2565b9050919050565b6000819050602082019050919050565b600081519050919050565b6000602082019050919050565b600082825260208201905092915050565b600082825260208201905092915050565b60006107c8826107cf565b9050919050565b600073ffffffffffffffffffffffffffffffffffffffff82169050919050565b6000819050919050565b6000610804826107ef565b91507fffffffffffffffffffffffffffffffffffffffffffffffffffffffffffffffff82141561083757610836610842565b5b600182019050919050565b7f4e487b7100000000000000000000000000000000000000000000000000000000600052601160045260246000fd5b7f546869732077616c6c65742068617320616c7265616479206265656e2061646460008201527f656400000000000000000000000000000000000000000000000000000000000060208201525056fea264697066735822122070798dfd69c63b397946322c8404c6a8c60e231cf7690e69de60abaa6412ff1064736f6c63430008040033",
  "linkReferences": {},
  "deployedLinkReferences": {}
}